:020000040800F2
:100000000004002047010008750100087B0100087A
:100010007F0100088301000887010008000000003C
:100020000000000000000000000000008B0100083C
:100030008D010008000000008F01000891010008F8
:1000400067010008670100086701000867010008F0
:1000500067010008670100086701000867010008E0
:1000600067010008670100086701000867010008D0
:1000700067010008670100086701000867010008C0
:1000800067010008670100086701000867010008B0
:1000900067010008670100086701000867010008A0
:1000A0006701000867010008670100086701000890
:1000B0006701000867010008670100086701000880
:1000C0006701000867010008670100086701000870
:1000D0006701000877010008670100086701000850
:1000E0006701000867010008670100086701000850
:1000F0006701000867010008670100086701000840
:10010000670100086701000867010008670100082F
:10011000670100086701000867010008670100081F
:10012000670100086701000867010008670100080F
:10013000DFF80CD001F0FEFC0048004793010008F6
:1001400028020020704708488047084981F3088842
:1001500007480047FEE7FEE7FEE7FEE7FEE7FEE7AB
:10016000FEE7FEE7FEE7FEE7450100082802002063
:1001700031010008704700BFFEE700BFFEE700BF87
:10018000FEE700BFFEE700BFFEE77047704770471D
:10019000704701F0A5FC482000F01CFA01E001F0D6
:1001A00053F8FCE708B50121082001F0C3FB4FF428
:1001B0007070ADF8000003208DF8020010208DF85B
:1001C00003006946FB4801F019F90121042001F000
:1001D000B1FBA020ADF8000003208DF80200102034
:1001E0008DF803006946F44801F008F908BD0021C4
:1001F000082115E000F0800222B18022EE4B10337E
:100200001A6003E08022EC4B14331A602022EA4B80
:1002100014331A601B1F1A604206100E4A1ED1B218
:100220000029E7DC704710B504464FF40070E1493F
:1002300014310860802008602046FFF7D8FF4FF493
:100240000070DC491031086010BD10B504464FF451
:100250000070D849143108608020091F08602046CA
:10026000FFF7C5FF4FF40070D2491031086010BD90
:1002700010B504464FF40070CE4914310860802058
:10028000091F08602012FFF7B2FFE0B2FFF7AFFFCF
:100290004FF40070C7491031086010BD30B50546F5
:1002A0000C462846FFF7BFFF2046FFF7CEFF30BDC4
:1002B00010B54FF48070BF4914310860642000F01D
:1002C000A5F94FF48070BB4910310860322000F06E
:1002D0009DF910BD10B5FFF765FFFFF7E9FF11208D
:1002E000FFF7A1FF782000F091F9B120FFF79BFF05
:1002F0000120FFF7AAFF2C20FFF7A7FF2D20FFF713
:10030000A4FFB220FFF78FFF0120FFF79EFF2C20F4
:10031000FFF79BFF2D20FFF798FFB320FFF783FF28
:100320000120FFF792FF2C20FFF78FFF2D20FFF712
:100330008CFF0120FFF789FF2C20FFF786FF2D207F
:10034000FFF783FFB420FFF76EFF0720FFF77DFF65
:10035000C020FFF768FFA220FFF777FF0220FFF71A
:1003600074FF8420FFF771FFC120FFF75CFFC520F9
:10037000FFF76BFFC220FFF756FF0A20FFF765FF6C
:100380000020FFF762FFC320FFF74DFF8A20FFF731
:100390005CFF2A20FFF759FFC420FFF744FF8A20A3
:1003A000FFF753FFEE20FFF750FFC520FFF73BFF9D
:1003B0000E20FFF74AFF3620FFF735FFC820FFF772
:1003C00044FFE020FFF72FFF0F20FFF73EFF1A202A
:1003D000FFF73BFF0F20FFF738FF1820FFF735FF2F
:1003E0002F20FFF732FF2820FFF72FFF2020FFF7F5
:1003F0002CFF2220FFF729FF1F20FFF726FF1B20DD
:10040000FFF723FF2320FFF720FF3720FFF71DFF13
:100410000020FFF71AFF0720FFF717FF0220FFF762
:1004200014FF1020FFF711FFE120FFF7FCFE0F2063
:10043000FFF70BFF1B20FFF708FF0F20FFF705FF5B
:100440001720FFF702FF3320FFF7FFFE2C20FFF7F6
:10045000FCFE2920FFF7F9FE2E20FFF7F6FE3020E4
:10046000FFF7F3FE3020FFF7F0FE3920FFF7EDFE37
:100470003F20FFF7EAFE0020FFF7E7FE0720FFF727
:10048000E4FE0320FFF7E1FE1020FFF7DEFE2A2046
:10049000FFF7C9FE0020FFF7D8FE0020FFF7D5FECA
:1004A0000020FFF7D2FE7F20FFF7CFFE2B20FFF7C3
:1004B000BAFE0020FFF7C9FE0020FFF7C6FE0020AD
:1004C000FFF7C3FE9F20FFF7C0FEF020FFF7ABFE53
:1004D0000120FFF7BAFEF620FFF7A5FE0020FFF788
:1004E000B4FE3A20FFF79FFE0520FFF7AEFE29205D
:1004F000FFF799FE10BDF0B504460D4616461F469F
:100500002A20FFF790FE0020FFF79FFEA11CC8B233
:10051000FFF79BFE0020FFF798FEB11CC8B2FFF763
:1005200094FE2B20FFF77FFE0020FFF78EFEE91CD4
:10053000C8B2FFF78AFE0020FFF787FEF91CC8B299
:10054000FFF783FE2C20FFF76EFEF0BD30B50446AA
:100550000D462B46224629462046FFF7CCFF30BDEC
:1005600070B504460D461646681C83B2601C82B204
:1005700029462046FFF7BFFF3046FFF779FE70BDE2
:1005800060B505460E4631462846FFF7DFFFE0B26C
:10059000FFF75BFE204660BD70B506467F231A4616
:1005A00000210846FFF7A7FF2C20FFF73CFE0024A0
:1005B0000DE00000000C014000080140002503E0B0
:1005C0003046FFF755FE6D1C802DF9D3641C802C3E
:1005D000F4D370BD4FF0E021096921F004014FF020
:1005E000E0221161C21700EB5272C2F3C702234B23
:1005F0001A701946097801EB4102C2EBC1114FF69E
:10060000FF7202EAC1011E4A1180704701461C4A6E
:1006100012884A434FF0E0235A6100229A61012276
:100620001A6100BF4FF0E022106900F001021AB118
:1006300000F48032002AF5D000224FF0E0231A6146
:100640009A61704701460D4A12784A434FF0E02301
:100650005A6100229A6101221A6100BF4FF0E02224
:10066000106900F001021AB100F48032002AF5D0BE
:1006700000224FF0E0231A619A61704700000020C9
:100680000200002030B5014601F01F04C1F34513FC
:10069000CA0AE50205EB43151544A8B230BD2DE9A1
:1006A000F04706460F4690469A46002445464FEAD4
:1006B0004800C0F103094AE07A1991B2321990B2A8
:1006C0005246FFF74DFF7A1991B2321B90B2524653
:1006D000FFF746FF7A1B91B2321990B25246FFF7EC
:1006E0003FFF7A1B91B2321B90B25246FFF738FFA0
:1006F0003A1991B2721990B25246FFF731FF3A1986
:1007000091B2721B90B25246FFF72AFF3A1B91B288
:10071000721990B25246FFF723FF3A1B91B2721B37
:1007200090B25246FFF71CFFB9F1000F05DA042022
:1007300000FB049000F1060907E0601B042101FBA7
:10074000009000F10A09681E85B2601C84B2AC42B8
:10075000B2DBAC4237D17A1991B2321990B252461B
:10076000FFF7FEFE7A1991B2321990B25246FFF7A6
:10077000F7FE7A1B91B2321990B25246FFF7F0FEA3
:100780007A1B91B2321B90B25246FFF7E9FE3A193A
:1007900091B2721990B25246FFF7E2FE3A1991B245
:1007A000721B90B25246FFF7DBFE3A1B91B27219F0
:1007B00090B25246FFF7D4FE3A1B91B2721B90B230
:1007C0005246FFF7CDFEBDE8F0872DE9FF4F83B01D
:1007D0008046894649464046FFF7B8FE0598A0EB9B
:1007E00008050698A0EB0906002D02DB0120029007
:1007F00003E04FF0FF3002906D42002E02DB01203B
:10080000019003E04FF0FF30019076424FEA450A35
:100810004FEA460BB54219DDABEB0504002712E0A9
:1008200049464046109AFFF79BFE002C05DBA4EBDF
:100830000A04019848441FFA80F95C440298404435
:100840001FFA80F87F1CAF42EADD18E0AAEB06042D
:10085000002712E049464046109AFFF781FE002C1F
:1008600005DBA4EB0B04029840441FFA80F85444C3
:10087000019848441FFA80F97F1CB742EADD07B0AF
:10088000BDE8F08F2DE9F84305460C4616461F4695
:10089000DDF820804EF67D700090A81982B22346C4
:1008A00021462846FFF791FF42F6651004F1010C3E
:1008B000BC441FFA8CF305EB060CACF1010C1FFADB
:1008C0008CF204F1010C1FFA8CF105EB060CACF173
:1008D000010C00901FFA8CF0FFF777FF42F66510CD
:1008E0000090E01983B2A81982B2E01981B22846BB
:1008F000FFF76BFF4EF67D700090E01983B22A4639
:1009000021462846FFF761FF04F1010CBC44ACF11D
:10091000020C1FFA8CF305F1010CB444ACF1020C8B
:100920001FFA8CF204F1010C1FFA8CF105F1010C95
:100930001FFA8CF0CDF80080FFF747FFBDE8F88381
:100940002DE9F84305460C4616461F46DDF8208083
:10095000B8F1000F39D14EF67D700090A81982B21F
:10096000234621462846FFF730FF42F6651004F182
:10097000010CBC441FFA8CF305EB060CACF1010C26
:100980001FFA8CF204F1010C1FFA8CF105EB060C36
:10099000ACF1010C00901FFA8CF0FFF716FF42F645
:1009A00065100090E01983B2A81982B2E01981B2F3
:1009B0002846FFF70AFF4EF67D700090E01983B2DB
:1009C0002A4621462846FFF700FFB8F1010F39D12A
:1009D00042F665100090A81982B2234621462846A7
:1009E000FFF7F3FE4EF67D7004F1010CBC441FFAD4
:1009F0008CF305EB060CACF1010C1FFA8CF204F140
:100A0000010C1FFA8CF105EB060CACF1010C009007
:100A10001FFA8CF0FFF7D9FE4EF67D700090E019BA
:100A200083B2A81982B2E01981B22846FFF7CDFE41
:100A300042F665100090E01983B22A462146284606
:100A4000FFF7C3FEB8F1020F39D14FF6FF700090E7
:100A5000A81982B2234621462846FFF7B6FE4FF674
:100A6000FF7004F1010CBC441FFA8CF305EB060C7B
:100A7000ACF1010C1FFA8CF204F1010C1FFA8CF19D
:100A800005EB060CACF1010C00901FFA8CF0FFF79F
:100A90009CFE4FF6FF700090E01983B2A81982B255
:100AA000E01981B22846FFF790FE4FF6FF700090E4
:100AB000E01983B22A4621462846FFF786FEBDE8A4
:100AC000F883F8B504460D4616461F4644F2082042
:100AD0002B463246294600902046FFF776FE48F224
:100AE00010406A1C93B291B2621C009090B23246E0
:100AF000FFF76BFE44F208203B4622462946009051
:100B00002046FFF762FE48F21040631C9AB26B1C4D
:100B100099B2631C009098B23B46FFF756FE4FF621
:100B2000FF703B463246394600902046FFF74DFEA7
:100B30004FF6FF703B463246294600903046FFF79D
:100B400044FEF8BDF8B506460F4614461D464FF65E
:100B5000FF703B462246394600903046FFF735FE8F
:100B60004FF6FF702B463246394600903046FFF76D
:100B70002CFE48F210406A1E93B291B2721C009093
:100B800090B22246FFF721FE44F208202B4622466F
:100B9000294600903046FFF718FE48F21040631EC9
:100BA0009AB27B1C99B2631E009098B22B46FFF755
:100BB0000CFE44F208202B4622463946009020467F
:100BC000FFF703FEF8BD2DE9F84F07468846934628
:100BD0009A46DDF828900097B3E099F80000802845
:100BE0003DDA99F800600D2E05D1009F08F1100044
:100BF0001FFA80F830E0202E03DDA6F1200086B237
:100C000000E00026002422E000251CE004EB061092
:100C1000E849085C80212941084040B108EB040202
:100C200091B27A1990B25A46FFF79AFC09E0D3457F
:100C300007D008EB040291B27A1990B25246FFF73E
:100C40008FFC681CC5B2082DE0DB601CC4B2102C00
:100C5000DADB07F1080087B209F1010971E000262B
:100C600068E006EB0610D44911F8100099F800105E
:100C700088425DD106EB0610CF4901EB4000407879
:100C800099F80110884253D100244FE0002520E05C
:100C900006EB0610C84901EB4000801C10F8141048
:100CA00080202841014041B108EB040291B27A1939
:100CB00090B25A46FFF754FC09E0D34507D008EB41
:100CC000040291B27A1990B25246FFF749FC681CAF
:100CD000C5B2082DDCDB002524E006EB0610B64982
:100CE00001EB4000801C012101EB4401405C8021AC
:100CF0002941084048B108EB040291B27A19083240
:100D000090B25A46FFF72CFC0AE0D34508D008EB16
:100D1000040291B27A19083290B25246FFF720FCD1
:100D2000681CC5B2082DD8DB601CC4B2102CADDB2A
:100D3000701C86B2322E94DB09F1020907F1100013
:100D400087B299F8000000287FF447AFBDE8F88F1C
:100D50002DE9F05F0646884693469A46DDF82890CE
:100D6000E2E099F80000802835DA99F80070202F29
:100D700003DDA7F1200087B200E00027002522E074
:100D800000241CE005EB07108A49095C8020204103
:100D9000014041B108EB050291B2321990B25A46B6
:100DA000FFF7DEFB09E0D34507D008EB050291B25F
:100DB000321990B25246FFF7D3FB601CC4B2082C24
:100DC000E0DB681CC5B2102DDADB09F1010906F180
:100DD000080086B2A8E000279EE007EB870000EB42
:100DE0004710764911F8100099F8001088427CD11C
:100DF00007EB870000EB4710704901EB400040789B
:100E000099F801108842F2D1002580E0002423E007
:100E100007EB870000EB4710684901EB4000801C9E
:100E200005EB4501405C80212141084040B108EBC1
:100E3000050291B2321990B25A46FFF791FB09E0D0
:100E4000D34507D008EB050291B2321990B2524651
:100E5000FFF786FB601CC4B2082CD9DB002426E017
:100E600007EB870000EB4710544901EB4000801C62
:100E700005EB4501491C405C80212141084048B1F7
:100E800008EB050291B23219083290B25A46FFF7C8
:100E900067FB0AE0D34508D008EB050291B232198E
:100EA000083290B25246FFF75BFB601CC4B2082CBC
:100EB000D6DB002427E007EB870000EB47103F4913
:100EC00001EB4000801C05EB4501891C405C802142
:100ED0002141084050B108EB050291B2321910329D
:100EE00090B25A46FFF73CFB0BE013E0D34508D025
:100EF00008EB050291B23219103290B25246FFF758
:100F00002FFB601CC4B2082CD5DB681CC5B2182DA1
:100F1000FFF67CAF781C87B2142FFFF65EAF09F1A5
:100F2000020906F1180086B299F8000000287FF443
:100F300018AFBDE8F09F2DE9F05F0746884692465E
:100F40009946002531E000242BE01D490A9801EB69
:100F5000C01000EB850010F804B000261DE08020D2
:100F6000304100EA0B0050B108EB050291B207EBEB
:100F7000C402324490B25246FFF7F2FA0BE0CA457F
:100F800009D008EB050291B207EBC402324490B2DB
:100F90004A46FFF7E5FA701CC6B2082EDFDB601C7C
:100FA000C4B2042CD1DB681CC5B2202DCBDBBDE85C
:100FB000F09F0000761B0008E8280008D02F0008EA
:100FC0006721000808B54EF67D70FFF7E5FAABA083
:100FD0004EF67D731F22002100901020FFF7F3FDD5
:100FE000A9A04EF67D734FF4784214210090102092
:100FF000FFF7E9FD3A23712226210F20FFF7A2FD1A
:10100000A5A04EF67D734FF6E072282100901020C7
:10101000FFF7D9FD5823712244210F20FFF792FDDD
:10102000A1A04EF67D731F22462100901020FFF7ED
:10103000CAFD7623712262210F20FFF783FD9EA057
:101040004EF67D734FF47842642100901020FFF734
:10105000BAFD40F2DC50FFF7D9FA08BDF8B500241C
:101060004EF67D70FFF798FA97A04EF67D734FF419
:101070007842142100901020FFF7A5FD4FF47A70FC
:10108000FFF7C4FA4EF67D70FFF786FA00BF21E045
:10109000032094FBF0F04001401D85B2032094FB37
:1010A000F0F100FB114000EB80004FF6FF7101EA08
:1010B000C0068849601C085C4EF67D734FF4784288
:1010C000294600903046FFF736FF6420FFF79EFA6E
:1010D000601CC4B20A2CDBDBF8BD08B54EF67D708F
:1010E000FFF75AFA70A04EF67D731F220A21009076
:1010F0001020FFF768FD4FF47A70FFF787FA4EF67D
:101100007D70FFF749FA5DA04EF67D734FF6E072F1
:101110001E2100901020FFF756FD6FA04EF67D7344
:101120001F22322100901020FFF74DFD6EA04EF6D9
:101130007D734FF47842462100901020FFF743FD65
:101140006DA04EF67D731F22642100900020FFF7F2
:101150003AFD6DA04EF67D734FF4784282210090E7
:101160000020FFF730FD4FF4E160FFF74FFA08BDB4
:1011700038B501244EF67D70FFF70EFA66A04EF6E4
:101180007D731F220A2100901420FFF71CFDC82048
:10119000FFF73CFA11E04FF6FF70FFF7FDF9002072
:1011A000FFF7FAF94FF47840FFF7F6F94FF4FC60D7
:1011B000FFF7F2F91F20FFF7EFF9201EA4F101015C
:1011C000CCB2E8D138BD2DE9F04707464FF6FF70A5
:1011D000FFF7E2F9002633E000252EE006EB860C4F
:1011E0004FEACC0C0CF1270C1FFA8CF305EB850CA5
:1011F0004FEACC0C0CF1270C1FFA8CF206EB860C94
:101200004FEACC4C4FEA1C4105EB850C4FEACC4C25
:101210004FEA1C40FFF76FF900240AE017F814901A
:1012200007EB440090F8018049EA0820FFF720F816
:10123000641CB4F5C86FF1DB6D1C032DCEDB761C8E
:10124000032EC9DBBDE8F08710B5FFF743F8402057
:1012500034490860FFF7B6FEFFF78AFFFFF7FEFE8E
:10126000FFF73BFF3048FFF7AEFF4FF49660FFF704
:10127000CDF940202B49091D086010BDB5E7D7D333
:10128000BCBCCAF500000000D2BABEA7B2E2CAD404
:10129000B3CCD0F200000000D1D5C9ABCCEEB3E4A2
:1012A000B2E2CAD400000000CEC4D7D6CFD4CABEA2
:1012B000B2E2CAD400000000CDBCC6ACCFD4CABED6
:1012C000B2E2CAD4000000004E756D2054657374FC
:1012D0000000000004000020D7A8D7A2D2BABEA701
:1012E000C5FAB7A200000000C8ABB3CCBCBCCAF5BD
:1012F000D6A7B3D60000000054656C3A31313131C5
:10130000313131313131310051513A3131313131B5
:101310003131313100000000436F6C6F7220546531
:1013200073740000100C01404E35000810B50446DF
:10133000C649601A8C422FD009DCC548204480B1D0
:10134000B0F5806F16D0B0F5006F4AD11BE0B0F554
:10135000806F2AD0B0F5006F30D0B0F5406F40D12B
:1013600035E00121042000F0FFFA0021042000F004
:10137000FBFA37E00121082000F0F6FA00210820EE
:1013800000F0F2FA2EE00121102000F0EDFA002129
:10139000102000F0E9FA25E00121202000F0E4FA15
:1013A0000021202000F0E0FA1CE00121402000F0A4
:1013B000DBFA0021402000F0D7FA13E00121802061
:1013C00000F0D2FA0021802000F0CEFA0AE00121DC
:1013D000080200F0C9FA00214FF4807000F0C4FA4E
:1013E00000E000BF00BF10BD10B50121084600F0AD
:1013F000BBFA0021012000F0B7FA10BD2DE9F04141
:10140000024600250026002000230024002791F832
:1014100003C00CF00F0591F803C00CF0100CBCF1E8
:10142000000F03D091F802C04CEA050591F800C006
:10143000BCF1000F31D0146800202BE04FF0010CFC
:101440000CFA00F3B1F800C00CEA03069E4220D16A
:1014500083004FF00F0C0CFA03F7BC4305FA03FCB2
:101460004CEA040491F803C0BCF1280F06D14FF0F8
:10147000010C0CFA00FCC2F814C00AE091F803C099
:10148000BCF1480F05D14FF0010C0CFA00FCC2F87A
:1014900010C0401C0828D1D31460B1F800C0BCF1C2
:1014A000FF0F34DD546800202EE000F1080C4FF0EF
:1014B000010808FA0CF3B1F800C00CEA03069E42DA
:1014C00021D183004FF00F0C0CFA03F7BC4305FA4F
:1014D00003FC4CEA040491F803C0BCF1280F05D1C9
:1014E00000F1080C08FA0CF8C2F8148091F803C057
:1014F000BCF1480F07D100F1080C4FF0010808FAC1
:101500000CF8C2F81080401C0828CED35460BDE807
:10151000F0814FF6FF710180022181700421C170BA
:1015200070470246002093680B400BB1012000E099
:10153000002070470146886880B27047024600204C
:10154000D3680B400BB1012000E00020704701463A
:10155000C86880B2704701617047416170470AB145
:10156000016100E041617047C16070474FF4803213
:101570000A438261816182618269826970470246A1
:101580000020344B18684FF68073184040EA021070
:101590000843304B186070472F49C8617047F0B559
:1015A0000A4600230024002100252A4E7168C0F35A
:1015B000034583B200F44016B6F5401F08D121F070
:1015C0007061244E766826F07066224F7E6012E0CD
:1015D00000F48016B6F5801F06D1032606FA05F43E
:1015E000A14341F0706106E0460D360103FA06F6AC
:1015F000B14341F0706122B1460D360103FA06F69F
:101600003143144E7160F0BD30B500228B071C0FC2
:101610000F2303FA04F20F4B08338C1053F82430D5
:1016200093430C4C08348D1044F8253023468C101D
:1016300053F824308C07240F00FA04F42343054C9C
:1016400008348D1044F8253030BD000000140140EE
:1016500000F8FEBF0000014000002042DE480068A4
:1016600040F00100DC49086008464068DB4908405A
:10167000D949486008460068D9490840D6490860F9
:101680000846006820F4802008600846406820F47E
:10169000FE004860002088607047CF49096821F447
:1016A0008031CD4A11601146096821F48021116012
:1016B000B0F5803F03D0B0F5802F0ED106E0C649CB
:1016C000096841F48031C44A116007E0C2490968E1
:1016D00041F4A021C04A116000E000BF00BF704784
:1016E00010B501460022002300204A11012A02D130
:1016F000B94C236806E0022A02D1B74C236A01E004
:10170000B54C636A01F01F02012494401C400CB1E7
:10171000012000E0002010BD38B50020009000241A
:10172000002500BF3120FFF7DBFF05460098401C75
:1017300000901DB90098B0F5A06FF3D13120FFF7EC
:10174000CFFF08B1012400E00024204638BD014647
:101750000020A14A106820F0F80040EAC1001060A3
:101760007047A04908607047024600209A4B5868AD
:1017700020F47C1042EA01031843974B58607047ED
:1017800098490866704701460020934A506820F047
:1017900003000843506070478F48406800F00C0019
:1017A0007047014600208C4A506820F0F000084342
:1017B0005060704701460020874A506820F4E0607E
:1017C00008435060704701460020834A506820F467
:1017D000605040EAC1005060704729B17E4A527A99
:1017E00002437D4B5A7204E07B4A527A82437A4B21
:1017F0005A7270477B49D831086070470146002013
:10180000754A506820F440400843506070470021FA
:10181000714A20321170704A82F82010012802D0DB
:1018200004280AD104E001216B4A2032117005E03E
:101830000521694A2032117000E000BF00BF7047E7
:101840006949086070476449096A0143624A116244
:101850007047654944390860704730B5002100225F
:10186000002400235C4D6D6805F00C0121B10429B2
:1018700005D0082923D105E05C4D056022E05B4DD1
:1018800005601FE0544D6D6805F47012022505EBEC
:101890009242514D6D6805F480341CB9544D554346
:1018A00005600BE04C4D6D6805F400351DB1504DE1
:1018B0005543056002E04D4D5543056002E04B4D38
:1018C000056000BF00BF444D6D6805F0F0010909D7
:1018D000484D6B5C0568DD4045603F4D6D6805F423
:1018E000E061090A434D6B5C4568DD4085603A4D17
:1018F0006D6805F46051C90A3E4D6B5C4568DD407A
:10190000C560354D6D6805F44041890B3A4D6B5CFF
:10191000C568B5FBF3F5056130BD29B12E4A5269A2
:1019200002432D4B5A6104E02B4A526982432A4BF1
:101930005A61704729B1284A92690243264B9A613D
:1019400004E0254A92698243234B9A61704729B18A
:10195000214AD2690243204BDA6104E01E4AD2696F
:1019600082431D4BDA61704729B11B4AD26802439A
:10197000194BDA6004E0184AD2688243164BDA60E9
:10198000704729B1144A12690243134B1A6104E0EB
:10199000114A12698243104B1A617047124940394B
:1019A000086070470F49C86470470B49C871704799
:1019B0000948406A40F08070074948627047014614
:1019C0000020054A92680A400AB1012000E0002088
:1019D0007047014988727047001002400000FFF80C
:1019E000FFFFF6FE000042428004424200127A00ED
:1019F00000093D000E0000201E0000200CB5002054
:101A0000019000904748006840F4803045490860E4
:101A100000BF4448006800F4003000900198401C6A
:101A20000190009818B90198B0F5A06FF1D13D4828
:101A3000006800F4003010B10120009001E00020A7
:101A400000900098012844D13748006840F0100009
:101A5000354908600846006820F003000860084621
:101A6000006840F0020008602E4840682D49486038
:101A70000846406848600846406840F48060486016
:101A80000846406820F47C1048600846406840F4EE
:101A9000E81048600846006840F08070086000BFA9
:101AA0002048006800F000700028F9D01D48406808
:101AB00020F003001B4948600846406840F00200DF
:101AC000486000BF1748406800F00C000828F9D1B2
:101AD00001E000BFFEE70CBD10B5FFF78FFF10BDA2
:101AE00010B51048006840F001000E490860084633
:101AF00040680E4908400B494860084600680C4998
:101B00000840084908600846006820F48020086002
:101B10000846406820F4FE00486000208860FFF717
:101B2000DBFF10BD00100240002002400000FFF863
:101B3000FFFFF6FE064C074D06E0E06840F00103AB
:101B400094E8070098471034AC42F6D3FEF7F4FA55
:101B5000D0410008F041000802E008C8121F08C187
:101B6000002AFAD170477047002001E001C1121F1E
:101B7000002AFBD1704700000000000000000000B8
:101B800000000000000000101010101010101010C5
:101B900000001010000000006C6C24240000000005
:101BA0000100000000000024242424FE4848484886
:101BB000FC909090900000103C5492905038141279
:101BC0001292547810000000225C94A8481010244F
:101BD0002A5254880000000030484850206E549427
:101BE0008C888A7400000000303010100000000063
:101BF0000000000000000004081010202020202019
:101C00002010100804000080402020101010101038
:101C1000102020408000000000001054381038547C
:101C200010000000000000000010101010FE101046
:101C30001010000000000000000000000000000084
:101C400000001010200000000000000000FE000056
:101C50000000000000000000000000000000000084
:101C600000001010000000000404080810102020DC
:101C7000404080800000000038448282828282825C
:101C800082824438000000001070101010101010F4
:101C90001010107C000000003844828204081020DC
:101CA000408284FC000000003844820204380402B0
:101CB0000282443800000000040C1414242444441C
:101CC000FE04040E00000000FC808080B8C4820284
:101CD00002828478000000003C428280B8C4828284
:101CE00082824438000000007E4282040408080812
:101CF00010101010000000003844828244384482E2
:101D00008282443800000000384482828282463A4F
:101D100002824438000000000000101000000000A3
:101D20001010000000000000000010100000000073
:101D300000101020000000000000061860806018ED
:101D4000060000000000000000000000FE0000FE91
:101D500000000000000000000000C0300C020C3049
:101D6000C000000000000038448282020408101005
:101D700010001010000000003844829AAAAAAAAAF3
:101D8000AA9680423C0000001010102828284444E5
:101D90007C4444EE00000000FC424242427C42424D
:101DA000424242FC000000003C44828080808080EF
:101DB0008282443800000000F844424242424242DB
:101DC000424244F800000000FC444240447C44404D
:101DD000404244FC00000000FC444240447C44403B
:101DE000404040F000000000344C828080808E84AF
:101DF00084844C3400000000EE444444447C444459
:101E0000444444EE000000007C101010101010102C
:101E10001010107C000000003E08080808080808A0
:101E20000888887000000000EE4448485060504820
:101E3000484444EE00000000E04040404040404044
:101E4000404244FC00000000C6446C6C6C54545486
:101E5000444444EE00000000CE4464646454544C96
:101E60004C4C44E40000000038448282828282822A
:101E70008282443800000000F844424242447840E4
:101E8000404040E00000000038448282828282822A
:101E900082BA443C02000000F04844444448704880
:101EA000444444E6000000003C44828040300C0280
:101EB00002824478000000007C5492101010101030
:101EC0001010103800000000EE44444444444444E0
:101ED0004444443800000000EE4444444428282888
:101EE0002810101000000000EE4454545454545470
:101EF0002828282800000000EE4444282810102834
:101F0000284444EE00000000EE4444282828101025
:101F100010101038000000007E44840808102020B3
:101F2000408284FC0000001C1010101010101010D3
:101F3000101010101C000000EE445454FE54545471
:101F40002828282800000070101010101010101001
:101F500010101010700000304884000000000000D5
:101F60000000000000000000000000000000000071
:101F700000000000FE000040200000000000000003
:101F80000000000000000000000000007884047CD5
:101F900084848C7600000000C04040405864424277
:101FA0004242645800000000000000003844808075
:101FB00080804438000000000C040404344C848405
:101FC00084844C360000000000000000788484FC0B
:101FD000808084780000000018242020F820202031
:101FE0002020207000000000000000003A444478E7
:101FF000807C82827C000000C040404058644444A1
:10200000444444EE00000000101000003010101096
:1020100010101038000000001010000030101010D8
:102020001010109060000000C04040405C485060BC
:10203000504844EE00000000301010101011101035
:10204000101010390000000000000000ACD2929285
:10205000929292D6000000000000000058E4444430
:10206000444444EE00000000000000003844828236
:10207000828244380000000000000000D864424220
:1020800042645840E000000000000000364C8484A8
:10209000844C34040E000000000000006C3020204E
:1020A000202020700000000000000000788884607C
:1020B000188444780000000000202020F820202010
:1020C000202024180000000000000000C642424208
:1020D0004242463A0000000000000000EE4444285E
:1020E000282810100000000000000000EE444454B6
:1020F000542828280000000000000000EE442810AA
:10210000102844EE0000000000000000EE444428C7
:10211000281010A0C0000000000000007E448810BD
:10212000204284FC0000000C1010101010601010F1
:10213000101010100C0000101010101010101010C3
:1021400010101010100000C0202020202018202087
:1021500020202020C00000000000000000728C0041
:102160000000000000000000000000001FE0000070
:102170003FF000003FF000001FE000018006000378
:10218000C00F0003C00F0003C00F0003C00F000307
:10219000C00F0003C00F0003C00F0003C00F0003F7
:1021A0000003000000000000000000000000000329
:1021B00000030003C00F0003C00F0003C00F0003A3
:1021C000C00F0003C00F0003C00F0003C00F0003C7
:1021D000C00F0001800600001FE000003FF000007B
:1021E0003FF000001FE000000000000000000000C1
:1021F00000800000018000000380000007800000D4
:1022000007800000078000000780000007800000B2
:1022100007800000078000000780000007800000A2
:10222000018000000000000000000000000000002D
:102230000180000007800000078000000780000088
:102240000780000007800000078000000780000072
:10225000078000000780000003800000018000006C
:102260000080000000000000000000001FE00000EF
:102270003FF00000FFF00001FFE00000000600005A
:10228000000F0000000F0000000F0000000F000012
:10229000000F0000000F0000000F0000000F000002
:1022A0001FE300007FF800007FF800001FE000033C
:1022B00000000003C0000003C0000003C0000003D2
:1022C000C0000003C0000003C0000003C000000302
:1022D000C0000001800000001FF000003FF8000077
:1022E0003FFC00001FFE000000000003FF80000113
:1022F000FFC00000FFC000007F8000000018000049
:10230000003C0000003C0000003C0000003C0000DD
:10231000003C0000003C0000003C0000003C0000CD
:102320007F8C0001FFE00001FFF000007F800000D3
:10233000000C0000003C0000003C0000003C0000DD
:10234000003C0000003C0000003C0000003C00009D
:10235000003C0000001800007F800000FFC000016A
:10236000FFC00003FF80000000000000000000022A
:10237000000100030003000380070003C00F0003F7
:10238000C00F0003C00F0003C00F0003C00F000305
:10239000C00F0003C00F0003C00F0003C00F0003F5
:1023A0001FE300007FF800007FFC00001FE000003A
:1023B00000030000000F0000000F0000000F0000ED
:1023C000000F0000000F0000000F0000000F0000D1
:1023D000000F0000000F00000007000000030000D5
:1023E0000001000000000000000000001FFC0000D1
:1023F0003FF800003FF000001FE0000180000003F4
:10240000C0000003C0000003C0000003C0000003C0
:10241000C0000003C0000003C0000003C0000003B0
:102420001FE000007FF800007FF800001FE00000C0
:1024300000030000000F0000000F0000000F00006C
:10244000000F0000000F0000000F0000000F000050
:10245000000F0000000600003FE000007FF00000D9
:10246000FFF00001FFE00000000000001FFC000082
:102470003FF800003FF000001FE000018000000373
:10248000C0000003C0000003C0000003C000000340
:10249000C0000003C0000003C0000003C000000330
:1024A0001FE000007FF800007FFC00001FE0000339
:1024B00000030003C00F0003C00F0003C00F0003A0
:1024C000C00F0003C00F0003C00F0003C00F0003C4
:1024D000C00F0001800600001FE000003FF0000078
:1024E0003FF000001FE0000000000007FFE00003D5
:1024F000FFC00001FF880000FF1800000038000046
:1025000000780000007800000078000000780000EB
:1025100000780000007800000078000000780000DB
:102520000018000000000000000000000000000093
:10253000001800000078000000780000007800001B
:1025400000780000007800000078000000780000AB
:10255000007800000078000000380000001800003B
:102560000008000000000000000000001FE0000064
:102570003FF000003FF000001FE000018006000374
:10258000C00F0003C00F0003C00F0003C00F000303
:10259000C00F0003C00F0003C00F0003C00F0003F3
:1025A0001FE300007FF800007FFC00001FE0000335
:1025B00000030003C00F0003C00F0003C00F00039F
:1025C000C00F0003C00F0003C00F0003C00F0003C3
:1025D000C00F0001800600001FE000003FF0000077
:1025E0003FF000001FE00000000000001FE00000BE
:1025F0003FF000003FF000001FE0000180060003F4
:10260000C00F0003C00F0003C00F0003C00F000382
:10261000C00F0003C00F0003C00F0003C00F000372
:102620001FE300007FF800007FFC00001FE00000B7
:1026300000030000000F0000000F0000000F00006A
:10264000000F0000000F0000000F0000000F00004E
:10265000000F0000000600001FE000003FF0000037
:102660007FF00000FFE0000000000000000000001C
:10267000000000000000000000000000000000005A
:10268000000000000000000000000000000000004A
:10269000000000000000000000000000000000003A
:1026A000000000000000000000000000000000002A
:1026B00000000000000000000000000078000000A2
:1026C000780000007800000078000000780000002A
:1026D0007800000000000000000000000000000082
:1026E00000000000000000000000000000000000EA
:1026F00000000000000000000000000000000000DA
:102700000000000000000000070000000F80000033
:102710000F8000000F800000070000000000000094
:1027200000000000000000000000000000000000A9
:1027300000000000070000000F8000000F80000074
:102740000F800000070000000000000000000000F3
:102750000000000000000000000000000000000079
:102760000000000000000000000000000000000069
:102770000000000000000007C006000FE006000097
:10278000000C0030181800301818003018300030D5
:10279000183000301860003008C00007C0C0000FBB
:1027A000E080000000000000000FE0000607C0000D
:1027B000063018000C3018000C30180018301800C3
:1027C000303018003030180060000000C00FE0000A
:1027D000C007C00000000000000000000000000072
:1027E00000000000000000000000000000000000E9
:1027F00000000000000000000000000000000007D2
:1028000000E0000887FC00088E030008980180079C
:102810001800800030000000300000007000000050
:102820006000000060000000600000006000000028
:102830006000000070000000300000003000000068
:1028400038000000180100000C03000007FC000025
:1028500001F0000000000000000000000000000087
:102860000000000000000000000000000000000068
:102870000000000000000000000000000000000058
:102880000000000000000000000000000000000048
:102890000000000000000000000000000000000038
:1028A000000000003FF000007FF000007FE000002B
:1028B000FFC0000000000000000000000000000059
:1028C0000000000000000000000000000000000008
:1028D00000000000000000000000000000000000F8
:1028E0000000000000000000B5E702000200020046
:1028F0007FF0421042107FF0421042107FF0420001
:102900000208020801F800000000D7D37FF0002081
:102910000040008001000200FFF8020002000200F7
:102920000200020002000E0000000000C8AB01001F
:10293000010002800440082010102FE8C1060100A9
:1029400001001FF00100010001007FFC0000B6AF94
:10295000004000407C40004001FC0044FE44204414
:102960002044208448844484FD0445040228041043
:10297000BCBC10201020102013FEFC2010201020C2
:1029800015FC18843088D048105010201050518801
:102990002606CAF501000120011001107FFC03800A
:1029A00005400540092011102108410401020100E1
:1029B00001000100D2BA0080404027F811400140D8
:1029C0008278424816A81AD0235022204220425032
:1029D000028800000000BEA73FE020203FE020204A
:1029E0003FE00000FDF885088508FDF885088508AA
:1029F000FDF8850800000000B2E200084F88288832
:102A00000AA88AA84AA80AA82AA82AA842284508E3
:102A100084888888103800000000CAD440502048BC
:102A200020400FF80040E040274022402240222072
:102A30002A2833A82E18000800000000B3CC00009C
:102A40001BF0E210221023F0F800200033F0688021
:102A50006080A3F02080208027F800000000D0F2E2
:102A6000020001003FF820002FF0202022402180AA
:102A70003FF8208820904080408083800000000044
:102A8000D1D5200010F87E20444028F87E8848A840
:102A900050A864A848A872A884501888610800004B
:102AA0000000C9AB100010003FE0404080807FF084
:102AB0004210421042107FF04000400840083FF8AA
:102AC00000000000CCEE20802FF8208027F0F410CA
:102AD00027F0241027F0241027F03410CFF802201C
:102AE000041000000000B3E404000200FFF8080036
:102AF000104020207FF0089008800880088010880F
:102B00002088C07800000000CEC40400020002004B
:102B1000FFF8104010400880088005000200050002
:102B200008803060C01800000000D7D60400020002
:102B3000FFF8800880083FC0008001000200FFF815
:102B40000200020002000E0000000000CFD43FE0AF
:102B5000202020203FE0202020203FE008804890D7
:102B6000289028A008800880FFF800000000CABE56
:102B700000003FE0000000000000FFF802001240EB
:102B8000122022104208820802000E0000000000FD
:102B9000CDBC7FF84008440847C8484854884308DB
:102BA0004CC8733840884C08430840887FF80000C0
:102BB0000000C6AC00802080208020803FF02000F4
:102BC000200020003FC02040204020404040804066
:102BD00000000000B4A520403840484091F07D50EE
:102BE000555055507D5055F054407C40545057F846
:102BF0008C0800000000C3FE2220222027F8FA20C3
:102C000027F0241027F03410E7F020802FF821401F
:102C10002220EC1800000000CAE440804140F2206D
:102C200044108BE8A000F78824A827A834A8E7A8B8
:102C300024A8248825B800000000C8EB0800040080
:102C40000400020002000500050008800880104012
:102C5000104020204010800800000000C8AB020097
:102C600002000500088010402020DFD8020002008A
:102C70001FC0020002000200FFF800000000B3CCF9
:102C800000001BF0E210221023F0F800200033F0C7
:102C900068806080A3F02080208027F8000000007A
:102CA000BCBC208020802080F7F02080208027E09E
:102CB0003220E2202140208021402220EC18000018
:102CC0000000CAF50200024002200200FFF80700DF
:102CD0000A800A801240222042108208020002006C
:102CE00000000000D6A702000200FFF80200020068
:102CF0007FE010201040088005000200050018C089
:102D0000E03800000000B3D62080208023F0F88057
:102D1000208027F828203020E7F8202022202120BA
:102D20002020E0E000000000D7A8020002007FF0B1
:102D300004000400FFF8080010003FE000200040FD
:102D40001C800300008000000000D7A2010040802A
:102D5000200017F0008080804080008017F01080F5
:102D60002080208040804FF800000000C5FA2040FD
:102D700024402440F4482450276024403440E44058
:102D80002440244025482648E43800000000B7A22B
:102D900002002220221044007FF8040008000FE007
:102DA000142024404280810006C038380000000012
:102DB000B3C900A0009000807FF8408040907C90D4
:102DC000449044A044A0444858A8411882080000F8
:102DD0000000B9A601000100F90023F02110211024
:102DE0002110211021103910C210021004100860A7
:102DF00000000000D2C60000002000780CE4790436
:102E0000516810307E6019981A3C2FE448E4083865
:102E1000003000600000D1A100000120012003FC6F
:102E200062203420042003FC240021B02120222031
:102E3000323E18000FE00000D4F10000000010FC4A
:102E40001304110C3DF8703E10D015907CF0503EEC
:102E500018101BFE023000200000CFEE0000000022
:102E600003FE00607C4012FC11041106113611248F
:102E70001F44794400C0009C01860000C4BF0000CC
:102E800000000FE03C18200820043E0460046004A9
:102E90007E046004200C20081FF001800000B6CCE6
:102EA0000000080011FC103E3EF82D8C2904490456
:102EB00009043E8C50FC10881EC811FC100E000046
:102EC000B0B400000040006012FE13023A427F449A
:102ED00010C41BFE3C987190113011A00078004C7A
:102EE0000000C8B70000004000F878C41F8C3138DB
:102EF00021EC2126413A7DE2272225FA3D260124B4
:102F000001040000B6A80000010001705FFC70041D
:102F100020042FF801001100113821C431003F00B6
:102F200063E040380000B3A4000000000818086007
:102F300008C00B001E00181C7FF01000118010E06C
:102F40001838098E0F000000B0B400000040006087
:102F500012FE13023A427F4410C41BFE3C9871904B
:102F6000113011A00078004C0000B7B5000000003F
:102F700007F80600240014F8078C04042408261817
:102F800025F0647C64C220801FC00000BBD8000014
:102F900000001FF030182008278C2C4428442844B7
:102FA0002CC427842004300C1FF80380000000008C
:102FB0000000000000000000000000000000000011
:102FC0000000000000000000000000000000000001
:102FD000B4BF000000000000020100063FC00C3F2B
:102FE000E01803001002003336603726203E6630BA
:102FF0001C643018642031FEE03F1FC01C0C000030
:103000000C000704003E07F00001C00000000000B3
:1030100000000000000000000000C9AB000000003C
:10302000000001FE0003E3000703000C03001C3F47
:10303000003BFFC03F30600C30200C30200C1020D3
:103040000C10600FFFC0083F000800000800600E71
:103050003FE007FC0000000000000000000000004E
:1030600000000000CCEE00000000000000030000A3
:10307000FFE00C07F00C06000CFF803FF0E01FC0E3
:10308000600CFE300CCC3004F83004FF2004C0206B
:103090001FFE603EC06001FFF001FFF000606000B5
:1030A0004000000000000000000000000000B3E449
:1030B00000000000000000200000300007FFF03F8B
:1030C000FFE00300000601800C01800801C0180722
:1030D000E00FFE7007E00002060006040004040092
:1030E0000404000C06700C07E00000000000000063
:1030F0000000000000000000B2E20000000000003C
:1031000000003039FC301FCC300706B00F06F01934
:1031100007B03137B03136F01F27F00167F001E515
:10312000F001E1F00041F00CF8B03CD830008C30F8
:1031300000803000000000000000000000000000DF
:103140000000CAD40000000000000803600C0370F7
:103150000C0330003FE0003F800801003C01800488
:103160007F80047D800C00800C10C00C10C00C18F7
:10317000400C1C600F7E60067030000030000000C4
:10318000000000000000000000000000CEC40000AD
:103190000000C00000E00000700001FFE01FFFC061
:1031A000180100000300000600000E00001C000EC5
:1031B000180007300001E00000F00000FC00018F63
:1031C000000303C00201E000000000000000000056
:1031D000000000000000D7D6000000000000002022
:1031E00000003F0031FFE03FC02038003030FE20BB
:1031F00033C660100200000C000018000018000028
:103200000C0007FFE03FFFE0000400000C00000C92
:1032100000000000000000000000000000000000AE
:10322000CFD400000000000007FF000F03C00C0017
:10323000401FF8601800600800400E01C007FF0042
:103240000000000184000184001987800F8CE007D2
:103250008C2000CC0003FFE01FFFC0000000000036
:1032600000000000000000000000CABE00000000D6
:1032700000000E00001FFFC0007FE0000000000003
:1032800000000000000000003FC03FFFE0003000F1
:103290000030000030000613000C13C00C18F018AA
:1032A00018001818000000000000000000000000D6
:1032B00000000000CDBC00000000000007FF000F70
:1032C00003801CC0C019FC6011C66033062033E6C1
:1032D0003036FF30301FF030703030FC30339F30EC
:1032E00036002010E060187C400E01C003FF000093
:1032F0003800000000000000000000000000C6AC24
:103300000000000000000818001808001808001845
:103310000800180C201FFFF01FF800180000100014
:103320000010F8001FFE001E030010030010030031
:10333000100300100300180200000000000000004D
:103340000000000000000000CFD4000000000000DA
:1033500007FF000F03C00C00401FF8601800600852
:1033600000400E01C007FF0000000001840001843E
:10337000001987800F8CE0078C2000CC0003FFE051
:103380001FFFC0000000000000000000000000005F
:103390000000CABE0000000000000E00001FFFC0B9
:1033A000007FE000000000000000000000000000BE
:1033B0003FC03FFFE0003000003000003000061347
:1033C000000C13C00C18F0181800181800000000AA
:1033D000000000000000000000000000B4A5000094
:1033E000000000000601800FC1801E6180304FC0C8
:1033F00020CFE0078D303FC9303379303379303F0B
:10340000FB3037FF203267E03FE3803FE3C03263A9
:10341000603267F0304FB000000000000000000094
:10342000000000000000C3FE0000000000000030AB
:10343000C000FFF00C79C00C1F800C7FE03FE06003
:103440000CC0300CFC3004C03007C0301E60603C43
:103450003FC0041C00047FE000FFE00030C00060BB
:1034600060000000000000000000000000000000FC
:10347000CAE40000000000000C03800C0FC0081C10
:10348000703F70001F9FC0101FC0100000367C30BE
:1034900017E6301FE3B0067FB00277F007E3F03F96
:1034A0007FF01336F00326300326300000000000C2
:1034B00000000000000000000000C8EB0000000059
:1034C000000006000003800001C00000E000007062
:1034D0000000780000CC0000C600018300030180DA
:1034E0000700C00600E00C00701800301800003023
:1034F00000000000000000000000000000000000CC
:1035000000000000000000000000000000000000BB
:1035100000000000000000000000000000000000AB
:10352000000000000000000000000000000000009B
:10353000000000000000000000000000000000008B
:103540000000000000000000000000000000DBDEC2
:103550005DEF5DEF7DEF5DEF5DEF5DEF5DEF5DEFEB
:103560005DEF5DEF5DEF5DEF5DEF5DEFBEF7FFFFE0
:10357000DEFF38C6928C8E6B6E6B107C96AD3CE78E
:10358000FFFFFFFF7DEF5DEF5DEF5DEF5DEF5DEF57
:103590005DEF5DEF5DEF5DEF5DEF5DEF5DEF5DEFCB
:1035A000FFFFFFFFFFFFFFFFFFFFFFFFFFFFFFFF2B
:1035B000FFFFFFFFFFFFFFFFFFFFFFFF5DEF159D19
:1035C0004F636C420A328829461925194521E83192
:1035D0008E6B18BEFFFFFFFFFFFFFFFFFFFFFFFF28
:1035E000FFFFFFFFFFFFFFFFFFFFFFFFFFFF5DEF9D
:1035F000FFFFFFFFFFFFFFFFFFFFFFFFFFFFFFFFDB
:10360000FFFFFFFFFFFFFFFFDFFFF59C0F53104B96
:1036100051530F4B6C3AE93167212519E410A30887
:10362000620083088A4A59C6FFFFFFFFFFFFFFFFC2
:10363000FFFFFFFFFFFFFFFFFFFFFFFFFFFF5DEF4C
:10364000FFFFFFFFFFFFFFFFFFFFFFFFFFFFFFFF8A
:10365000FFFFFFFFFFFF1CE74F5BB363B87CF56321
:1036600011434D32EA29882126190519051904113B
:103670000411E4108300A308728CFFFFFFFFFFFF1B
:10368000FFFFFFFFFFFFFFFFFFFFFFFFFFFF5DEFFC
:10369000FFFFFFFFFFFFFFFFFFFFFFFFFFFFFFFF3A
:1036A000FFFFFFFFDBDE4B3AF042356C544BB1328B
:1036B0002E2AEB21A92167190519041104110411FF
:1036C000041104110519E4104200AF73FFFFFFFF5E
:1036D000FFFFFFFFFFFFFFFFFFFFFFFFFFFF5DEFAC
:1036E000FFFFFFFFFFFFFFFFFFFFFFFFFFFFFFFFEA
:1036F000FFFF5DEF09324C32104B8F324F2A2E2ADA
:10370000CC19891989214719051904110411C4100C
:10371000C410041104110411E41042003184FFFFAD
:10372000FFFFFFFFFFFFFFFFFFFFFFFFFFFF5DEF5B
:10373000FFFFFFFFFFFFFFFFFFFFFFFFFFFFFFFF99
:10374000FFFFEC5247194C320B2AEC21EC210C22E2
:10375000915BEE4A061126190419E410E410A7291A
:103760006621A308051904110411E4108200F7BDB5
:10377000FFFFFFFFFFFFFFFFFFFFFFFFFFFF5DEF0B
:10378000FFFFFFFFFFFFFFFFFFFFFFFFFFFFFFFF49
:1037900035A58308882188218921AA218A216B42A5
:1037A000718CFFFF728C83080411C4082942FBDE70
:1037B0005DEFEC5A83080411041104118308E83109
:1037C000DFFFFFFFFFFFFFFFFFFFFFFFFFFF5DEFDB
:1037D000FFFFFFFFFFFFFFFFFFFFFFFFFFFFBEF742
:1037E000C731C4102519261947194719A8298A5223
:1037F000284A55ADFFFFE831A30805194D6B4D6B05
:10380000FFFF7DEF4521C410041104110411620073
:1038100076ADFFFFFFFFFFFFFFFFFFFFFFFF5DEF45
:10382000FFFFFFFFFFFFFFFFFFFFFFFFFFFF96B55B
:1038300062000411041905110519C4088B4AB6B5B4
:103840005DEFF7BDFFFF8E6B62002942AA5A084266
:10385000FFFFFFFFCC528308041104110411A308D9
:10386000AD52FFFFFFFFFFFFFFFFFFFFFFFFBEF7B0
:10387000FFFFDFFFDBDEFFFFFFFFFFFFFFFF4E630A
:103880006200041104110411E41062008E63FFFF52
:10389000FFFFFFFFFFFFCF730100F39C2C6396B582
:1038A000FFFFFFFF2D5B8300041104110411E410DE
:1038B00067213DEFFFFFFFFFFFFFFFFFFFFFB7B5F2
:1038C00076AD7DEFCB52B394FFFFFFFFDFFFE83112
:1038D000A3080411041104110411A3084942FFF7BD
:1038E000FFF7FFFFFFFF6A4A01007284FFFFFFFF3F
:1038F000FFF7DFEF093AA3080411041104110411C2
:10390000051118BEFFFFFFFFFFFFFFFFFFFFF07B6A
:103910006200E831C731410035A5FFFF5DEF462168
:10392000C4100411041104110411E410A308769DBD
:10393000FFF7FFFFB7ADA308A308C7319EE7FFF766
:10394000FFF776A5A308E410041104110411051172
:10395000051135A5FFFFFFFFFFFFFFFFFFFFDBDEC8
:10396000A7298300C410C410C4101CE79EEF0511E2
:10397000E41004110411041104110419C408E51021
:10398000D16BD16BC5086400A50843002B32779D2D
:10399000B3842519C410041104110411041125194C
:1039A0002609359DFFFFFFFFFFFFFFFFFFFFFFFF22
:1039B000AF7362000419051982000D5B8E9B6210C3
:1039C0000511041104110419E41085000511C4390E
:1039D000815A407B229C43AC03A4839B8272824920
:1039E000C218A400C500E4100419041105194719F0
:1039F0006711EC5ABEFFFFFFFFFFFFFFFFFFDFFF76
:103A0000DBD6C410E41004110511A41801C083888A
:103A1000E40005190419C5084421438323D542FE57
:103A2000E4FE27FF07FFA4FE64FE03FEA3FDE2FC05
:103A300042EC83B32462E510C40804192619A819BE
:103A400087210090D3BCFFFFFFFFFFFFFFFF5DEF6B
:103A5000FFFFF07B420005190511832801D044F8CF
:103A6000A348E400C508445A02EDE2FD02FE66FEEA
:103A700074FFB8FF73FFE7F6A6F645F6A4F5C3FC9E
:103A800062FCC2FCC2FCE3CBC44906118819870161
:103A9000A49001F8EC9AFFFFFFFFFFFFFFFF5DEF2F
:103AA000FFFF9EF7E83183000509824001C023F83B
:103AB00085F0A348A400445A02FD23CCC2DC04FED6
:103AC00028FE48F646F624F6E4F564FDE3FC62FCC5
:103AD000C2FC02E402DCE2FCA47A48016701C4787B
:103AE00024F802F884B07DE7FFFFFFFFFFFF5DEFE2
:103AF000FFFFFFFFDBDE2519A300C43802E022D858
:103B000044F8A6F8A4786300432183728339829B2A
:103B100021F561FD22FDE2FCA2FC42FC42FC42FCDC
:103B200022AB8341C392045226012519A49844F87C
:103B300023F802F8A4D09EEFFFFFFFFFFFFF5DEF29
:103B4000FFFFFFFFFFFF9AD68729A50043B822F8A1
:103B500023E065F8E8F807C983484200A300840021
:103B60006329A27A62B3A2CB62D302BB828A833971
:103B7000A400E500E500E508C46064D844F824F832
:103B800023F802F88388DBC6FFFFFFFFFFFF5DEF2E
:103B9000FFFFFFFFFFFFFFFF3DE7505B083123E81A
:103BA00043F844F065F809F9ABF989D10689A348CF
:103BB000421802004200610082006200620083003D
:103BC000A320C450A58885D865F844F844F823F8A4
:103BD00023F803D08210C7295DEFFFFFFFFF5DEFE1
:103BE000FFFFFFFFFFFFFFFFFFFFFFFF6C32A53866
:103BF00002D823F865F866F8A7F84AF90CFA4DFAE6
:103C00004CEA0BD2A9B968B147A927B107B907D1C6
:103C1000E7E8C7F8A7F865F865F844F823F803F86B
:103C200002D0A3280509C408EC5AFFFFFFFF5DEF8F
:103C3000FFFFFFFFFFFFFFFFFFFFFBDE0519C400D3
:103C4000A741E6C003F886F8A7F887F886F8C7F812
:103C500029F98AF9ABF9ABF98BF96AF929F908F96D
:103C6000C7F8A6F886F865F864F823F802F006B1FC
:103C70002529E400E41025192519149DFFFF5DEFA7
:103C8000FFFFFFFFFFFFFFFFFFFF96AD620082080F
:103C90003595BACE8BA244D025F887F8A7F8C7F897
:103CA000A7F887F886F886F886F887F8A7F8A7F8BF
:103CB000A6F885F865F864F824F064B80D93BBB6EF
:103CC000CF6383080411E4106621493A5DEF5DEF8C
:103CD000FFFFFFFFFFFFFFFFFFFFD3944200E41051
:103CE000BBCEFFFFBEE776B5CCAA07C145E045F8DD
:103CF00046F866F886F886F886F886F865F845F896
:103D000065F865E844D043A8018882903CD7FFEF6E
:103D1000559583080411041105194619B3945DEFF4
:103D2000FFFFFFFFFFFFFFFFFFFFB394410086216E
:103D30005DDFFFFFFFFFFFFFDFE77AC6D3B44EB3BF
:103D40002AC268D1E6E0A6E8A5E8A5E8E6D888C9D1
:103D500006A922A802A800A000C800D8F7E5FFE73E
:103D6000F8ADC410E4100411E41005118B4A5DEFA6
:103D7000FFFFFFFFFFFFFFFFFFFF55A54100A72942
:103D80005DDFFFF7FFFFFFFFFFFFFFFFFFFFFFEF1D
:103D90007DDFDBCE59CEF8CDD7CDF7C579CEFBBED2
:103DA000ABA203F045F842D043E800F072D4FFDF45
:103DB00039AEE410E4100411E410051187295DEF19
:103DC000FFFFFFFFFFFFFFFFFFFF59CE83084621E4
:103DD0001CD7FFF7FFFFFFFFFFFFFFFFFFFFFFFF06
:103DE000FFFFFFFFFFFFFFFFFFFFFFFFFFFFFFEFF3
:103DF0008BBA04F845F862E044F000F88EDBFFDF90
:103E0000F8A5C410E410E4100411E41025195DEFC6
:103E1000FFFFFFFFFFFFFFFFFFFFBEF787298308BC
:103E200039B6FFF7DFF7FFFFFFFFFFFFFFFFFFFFE1
:103E3000FFFFFFFFFFFFFFFFFFFFFFFFFFFFBEE7EB
:103E40004ABA03F845F864F844F800F86EE3FFD77F
:103E5000F48C83080411E410E410E41005195DEFFC
:103E6000FFFFFFFFFFFFFFFFFFFFFFFFEF730000FC
:103E70007284FFEFBEEFDFFFFFFFFFFFFFFFFFFFDB
:103E8000FFFFFFFFFFFFFFFFFFFFFFFFFFFFDFE77A
:103E90008BBA03F845F845F823F800F8D3D4FFD7D8
:103EA0004E5B2100293A55A58308C41025195DEF02
:103EB000FFFFFFFFFFFFFFFFFFFFFFFFFBDEA3088A
:103EC000E8319EDF9EE7BFEFFFFFFFFFFFFFFFFF31
:103ED000FFFFFFFFFFFFFFFFFFFFFFFFFFFFFFF7FA
:103EE00051BC02E003F803F043E0ECC27ECFFCBE1D
:103EF00046212100D394FFFF5184000087295DEF04
:103F0000FFFFFFFFFFFFFFFFFFFFFFFFFFFF5184EA
:103F10000000F48CFFEF9EE7BFEFDFFFFFFFFFFF26
:103F2000FFFFFFFFFFFFFFFFFFFFFFFFFFFFFFFFA1
:103F30003DDF55BD52BC72BCB7B55DC7FFDFF06B4E
:103F40000000093ABFF7FFFFFFFF149D55A55DEF85
:103F5000FFFFFFFFFFFFFFFFFFFFFFFFFFFFFFFF71
:103F6000AC4AA408BBBEDFE77EE7BEEFDFF7DFFFAA
:103F7000FFFFFFFFFFFFFFFFFFFFFFFFFFFFDFFF71
:103F8000DFF7FFEFDFDFBFD79ED7DFDFD8A58308DE
:103F90002611DBD6FFFFFFFFFFFFFFFFFFFF5DEFF7
:103FA000FFFFFFFFFFFFFFFFFFFFFFFFFFFF79EEB8
:103FB0008BDC2131A9213DCFBFDF7EDF9EE7BEEF45
:103FC000BFEFDFF7DFF7DFF7DFF7DFF7BFEFBEEFBA
:103FD0009EE77EDF5ED75ED7DFDF9AB626194208FE
:103FE000EDA3BFFFFFFFFFFFFFFFFFFFFFFF5DEF41
:103FF000FFFFFFFFFFFFFFFFFFFFFFFF74DDC0DBE1
:1040000000FE42EE024289217BB6DFDF7ED77EDFF3
:104010007EDF9EE79EE79EE79EE79EE77EDF7EDFF0
:104020005DD75DD79EDFFFE7F8A50711E31802C54E
:1040300060FDE6D3DBEEFFFFFFFFFFFFFFFF5DEF5D
:10404000FFFFFFFFFFFFFFFFFFFF9EF784BAC1FCEA
:1040500042FE82FEA2FE8183452174745EC7DFDFCB
:104060007ED75ED75DD75ED75ED75DD75DD75ED78B
:104070009EDFFFE73DC7F1638408425226E629FF31
:1040800086FEE0F36AC3FFFFFFFFFFFFFFFF5DEF68
:10409000FFFFFFFFFFFFFFFFFFFF18DEC1D2A2FD02
:1040A00022FE42FE42FE62FEE2D4416A494253745D
:1040B0003BA63EC7BFD7BFD7BFD7BFDFBFD73EC71F
:1040C0001AA6F263A729824122B462FE83FEAAFEE9
:1040D0000FFF67FD63BA3CEFFFFFFFFFFFFF5DEFE0
:1040E000FFFFFFFFFFFFFFFFFFFF9AE680D221FDEA
:1040F000C2FDE2F5C2F582F582FD62FD61DC219B25
:10410000846AE96A2C63AF6311746E632C63895A05
:104110000452817AC2CBE2FC62FD82FDC2FDC2FD87
:10412000E4FD24FD62CA1CE7FFFFFFFFFFFF5DEF18
:10413000FFFFFFFFFFFFFFFFFFFFFFFFB1CC81D2BB
:10414000C0F3C1FC02FD02FDE2FCC2FCC2FC81FC2A
:1041500080FBC0C9A48135AD59CE719C218100DAA4
:10416000A1FB82FCA2FC82FCA2FC02FD22FDE2FC7F
:1041700000FC60DA90CCFFFFFFFFFFFFFFFF5DEF69
:10418000FFFFFFFFFFFFFFFFFFFFFFFFFFFF59DE06
:104190000DC406CBE4D203DB03DBE3DAC3D2A4C253
:1041A00009B3D2BC9EF7FFFFFFFFFFFFFBE60EB493
:1041B000A6BA83D2E3E202EB22EB22E303DBE4D2F2
:1041C0006AC3B6D5FFFFFFFFFFFFFFFFFFFF000041
:1041D000F04100080000002024000000581B0008E7
:1041E000144200082400002004020000681B00089C
:1041F0000000000000010203040506070809000092
:104200000000010203040102030406070809020476
:04421000060800009C
:0400000508000131BD
:00000001FF
